{
  "transactions": [
    {
      "hash": "0x5968dfc060c5250198490f66e8ef0ecc35e8a80eee26d3260e52f27814b832d3",
      "transactionType": "CALL",
      "contractName": null,
      "contractAddress": "0x688b68e2483392af2404778e18e203166412f29b",
      "function": "setMarketTokenDetails(uint256,uint256,address)",
      "arguments": [
        "1",
        "20000000000000000000",
        "0x3028386fFD36494f861df4dafC6Ed6A8A9719243"
      ],
      "transaction": {
        "from": "0xe90cfb1cd42ea306959577e12f577b50ebc0e0a4",
        "to": "0x688b68e2483392af2404778e18e203166412f29b",
        "gas": "0x19872",
        "value": "0x0",
        "input": "0xe67985760000000000000000000000000000000000000000000000000000000000000001000000000000000000000000000000000000000000000001158e460913d000000000000000000000000000003028386ffd36494f861df4dafc6ed6a8a9719243",
        "nonce": "0x19",
        "chainId": "0xa86a"
      },
      "additionalContracts": [],
      "isFixedGasLimit": false
    },
    {
      "hash": "0x7a1a56c1f7a7eebd98f1e8c4ad73d497db6e13131a466d412ed50ac7160e90be",
      "transactionType": "CALL",
      "contractName": null,
      "contractAddress": "0x688b68e2483392af2404778e18e203166412f29b",
      "function": "setMarketDeadline(uint256)",
      "arguments": [
        "1"
      ],
      "transaction": {
        "from": "0xe90cfb1cd42ea306959577e12f577b50ebc0e0a4",
        "to": "0x688b68e2483392af2404778e18e203166412f29b",
        "gas": "0x13df8",
        "value": "0x0",
        "input": "0x710eb63c0000000000000000000000000000000000000000000000000000000000000001",
        "nonce": "0x1a",
        "chainId": "0xa86a"
      },
      "additionalContracts": [],
      "isFixedGasLimit": false
    }
  ],
  "receipts": [
    {
      "status": "0x1",
      "cumulativeGasUsed": "0xa10f5",
      "logs": [
        {
          "address": "0x688b68e2483392af2404778e18e203166412f29b",
          "topics": [
            "0xbe087bdc22e97c7d7df5e0d572e283071d6fae09a18ca90c77c4999a495ea2a6",
            "0x0000000000000000000000000000000000000000000000000000000000000001"
          ],
          "data": "0x000000000000000000000000000000000000000000000001158e460913d000000000000000000000000000003028386ffd36494f861df4dafc6ed6a8a9719243",
          "blockHash": "0xf10e649b50f06f3202ff7434b752eaa732ef03bc4ff2e365ae9fc3516675653c",
          "blockNumber": "0x378c417",
          "transactionHash": "0x5968dfc060c5250198490f66e8ef0ecc35e8a80eee26d3260e52f27814b832d3",
          "transactionIndex": "0x3",
          "logIndex": "0x16",
          "removed": false
        }
      ],
      "logsBloom": "0x00000000000000000000000000000000000000000000000000000018000020000000000000000000000000000000000000000000000000000000000000040000000000000000000000000000000000000000000000040000000000000000000000040000000000000000000000800000000000000000000000000000000000000000000000000000000000000000000000000000000000000000000000000000000000000000000000000000000000000000000000000020000000000000000000000000000000000000000000000000000000000000000000000000000040000000000000000000000000000000000000000000000000000000000000000000",
      "type": "0x2",
      "transactionHash": "0x5968dfc060c5250198490f66e8ef0ecc35e8a80eee26d3260e52f27814b832d3",
      "transactionIndex": "0x3",
      "blockHash": "0xf10e649b50f06f3202ff7434b752eaa732ef03bc4ff2e365ae9fc3516675653c",
      "blockNumber": "0x378c417",
      "gasUsed": "0x127b6",
      "effectiveGasPrice": "0x4432adc8",
      "from": "0xe90cfb1cd42ea306959577e12f577b50ebc0e0a4",
      "to": "0x688b68e2483392af2404778e18e203166412f29b",
      "contractAddress": null
    },
    {
      "status": "0x1",
      "cumulativeGasUsed": "0xaf72a",
      "logs": [
        {
          "address": "0x688b68e2483392af2404778e18e203166412f29b",
          "topics": [
            "0x1a5ad6952dcb13c068ab646c10e7d499f191cbb7399a30f1c15754d01a19c288",
            "0x0000000000000000000000000000000000000000000000000000000000000001"
          ],
          "data": "0x0000000000000000000000000000000000000000000000000000000067c7f658",
          "blockHash": "0xf10e649b50f06f3202ff7434b752eaa732ef03bc4ff2e365ae9fc3516675653c",
          "blockNumber": "0x378c417",
          "transactionHash": "0x7a1a56c1f7a7eebd98f1e8c4ad73d497db6e13131a466d412ed50ac7160e90be",
          "transactionIndex": "0x4",
          "logIndex": "0x17",
          "removed": false
        }
      ],
      "logsBloom": "0x00000000000000000000000000000000000000000000000000000018000000000000000000000000000000000000000000000000000000000000000000040000000000000000000000000000000000000000000000040000000000000000000000000000000000000000000000010000000000000000000000000000000000000000000000000000000000000000000000000002000000000000000000000000000000000000000000000000000000000000000000000020000000000000000000000000000000000000000000000000000000000000000000000000000040000000010000000000000000000000000000000000000000000000000000000000",
      "type": "0x2",
      "transactionHash": "0x7a1a56c1f7a7eebd98f1e8c4ad73d497db6e13131a466d412ed50ac7160e90be",
      "transactionIndex": "0x4",
      "blockHash": "0xf10e649b50f06f3202ff7434b752eaa732ef03bc4ff2e365ae9fc3516675653c",
      "blockNumber": "0x378c417",
      "gasUsed": "0xe635",
      "effectiveGasPrice": "0x4432adc8",
      "from": "0xe90cfb1cd42ea306959577e12f577b50ebc0e0a4",
      "to": "0x688b68e2483392af2404778e18e203166412f29b",
      "contractAddress": null
    }
  ],
  "libraries": [],
  "pending": [],
  "returns": {},
  "timestamp": 1741157380,
  "chain": 43114,
  "commit": "2cbd157"
}