{
  "transactions": [
    {
      "hash": "0x6865d7b76be2d1a6d53e82bfef934b90ca96be275c82e2e0eeaddfc6d169fba4",
      "transactionType": "CALL",
      "contractName": null,
      "contractAddress": "0x9bad54cad50da7059aaf8bd8b00c3f20594d7841",
      "function": "createMarket(uint256,uint256,uint256,string,bool)",
      "arguments": [
        "86400",
        "500",
        "3000",
        "https://pyrdmmdqiqerkvwzvkha.supabase.co/storage/v1/object/public/premarket_static/markets/0.json",
        "false"
      ],
      "transaction": {
        "from": "0x6f537dd2e6c75aa585a209a39fbbc41fe50bd515",
        "to": "0x9bad54cad50da7059aaf8bd8b00c3f20594d7841",
        "gas": "0x55b82",
        "value": "0x0",
        "input": "0xd142d548000000000000000000000000000000000000000000000000000000000001518000000000000000000000000000000000000000000000000000000000000001f40000000000000000000000000000000000000000000000000000000000000bb800000000000000000000000000000000000000000000000000000000000000a00000000000000000000000000000000000000000000000000000000000000000000000000000000000000000000000000000000000000000000000000000006168747470733a2f2f707972646d6d6471697165726b76777a766b68612e73757061626173652e636f2f73746f726167652f76312f6f626a6563742f7075626c69632f7072656d61726b65745f7374617469632f6d61726b6574732f302e6a736f6e00000000000000000000000000000000000000000000000000000000000000",
        "nonce": "0x31",
        "chainId": "0xa86a"
      },
      "additionalContracts": [],
      "isFixedGasLimit": false
    },
    {
      "hash": "0x78fdd17f34a9f449dd6fbebfc0cd640ef9730feefcb502d92737578790bfb896",
      "transactionType": "CALL",
      "contractName": null,
      "contractAddress": "0x9bad54cad50da7059aaf8bd8b00c3f20594d7841",
      "function": "createMarket(uint256,uint256,uint256,string,bool)",
      "arguments": [
        "86400",
        "500",
        "3000",
        "https://pyrdmmdqiqerkvwzvkha.supabase.co/storage/v1/object/public/premarket_static/markets/1.json",
        "false"
      ],
      "transaction": {
        "from": "0x6f537dd2e6c75aa585a209a39fbbc41fe50bd515",
        "to": "0x9bad54cad50da7059aaf8bd8b00c3f20594d7841",
        "gas": "0x55b82",
        "value": "0x0",
        "input": "0xd142d548000000000000000000000000000000000000000000000000000000000001518000000000000000000000000000000000000000000000000000000000000001f40000000000000000000000000000000000000000000000000000000000000bb800000000000000000000000000000000000000000000000000000000000000a00000000000000000000000000000000000000000000000000000000000000000000000000000000000000000000000000000000000000000000000000000006168747470733a2f2f707972646d6d6471697165726b76777a766b68612e73757061626173652e636f2f73746f726167652f76312f6f626a6563742f7075626c69632f7072656d61726b65745f7374617469632f6d61726b6574732f312e6a736f6e00000000000000000000000000000000000000000000000000000000000000",
        "nonce": "0x32",
        "chainId": "0xa86a"
      },
      "additionalContracts": [],
      "isFixedGasLimit": false
    }
  ],
  "receipts": [
    {
      "status": "0x1",
      "cumulativeGasUsed": "0x154b99",
      "logs": [
        {
          "address": "0x9bad54cad50da7059aaf8bd8b00c3f20594d7841",
          "topics": [
            "0x25b2eff8f9cbb97c6c73adf7d94f4f8956260becc65ab075709db7561914a2b1",
            "0x0000000000000000000000000000000000000000000000000000000000000003"
          ],
          "data": "0x",
          "blockHash": "0xe6b601288534bb266d99b4db49b8e4f39c060831f0f60743684ee74543ee3b9d",
          "blockNumber": "0x37848b5",
          "transactionHash": "0x6865d7b76be2d1a6d53e82bfef934b90ca96be275c82e2e0eeaddfc6d169fba4",
          "transactionIndex": "0x6",
          "logIndex": "0x1c",
          "removed": false
        }
      ],
      "logsBloom": "0x00000000000000000000000000000000000000000000000000000000000000000000000400000000000000400000000000000000020000000000000000000000000000000000000000000000000000000000000020000000000000000000000000000000000000000000000000000000000000040000000000000000000000000000100000000000000000000000000000000000000000000004000000000000000000000000000000000000000000000000000000800000000000000000400000000000000000000000000000000000000000000000000000000000000000000000000000000000000000000000000000000000000000000000000000000000",
      "type": "0x2",
      "transactionHash": "0x6865d7b76be2d1a6d53e82bfef934b90ca96be275c82e2e0eeaddfc6d169fba4",
      "transactionIndex": "0x6",
      "blockHash": "0xe6b601288534bb266d99b4db49b8e4f39c060831f0f60743684ee74543ee3b9d",
      "blockNumber": "0x37848b5",
      "gasUsed": "0x3a9c9",
      "effectiveGasPrice": "0x6e3a6283",
      "from": "0x6f537dd2e6c75aa585a209a39fbbc41fe50bd515",
      "to": "0x9bad54cad50da7059aaf8bd8b00c3f20594d7841",
      "contractAddress": null
    },
    {
      "status": "0x1",
      "cumulativeGasUsed": "0x18f562",
      "logs": [
        {
          "address": "0x9bad54cad50da7059aaf8bd8b00c3f20594d7841",
          "topics": [
            "0x25b2eff8f9cbb97c6c73adf7d94f4f8956260becc65ab075709db7561914a2b1",
            "0x0000000000000000000000000000000000000000000000000000000000000004"
          ],
          "data": "0x",
          "blockHash": "0xe6b601288534bb266d99b4db49b8e4f39c060831f0f60743684ee74543ee3b9d",
          "blockNumber": "0x37848b5",
          "transactionHash": "0x78fdd17f34a9f449dd6fbebfc0cd640ef9730feefcb502d92737578790bfb896",
          "transactionIndex": "0x7",
          "logIndex": "0x1d",
          "removed": false
        }
      ],
      "logsBloom": "0x00000000000000000000000000000000000000000000000000000000000000000000000400000000000000400000000000000000000000000000000000000000000000000000000000000000000000000000000020000000000000000000000008000000000000000000000000000000000000040000000000000000000000000000100000000000000000000000000000000000000000000004000000000000000000000000000000000000000000000000000000000000002000000000000000000000000000000000000000000000000000008000000000000000000000000000000000000000000000000000000000000000000000000000000000000000",
      "type": "0x2",
      "transactionHash": "0x78fdd17f34a9f449dd6fbebfc0cd640ef9730feefcb502d92737578790bfb896",
      "transactionIndex": "0x7",
      "blockHash": "0xe6b601288534bb266d99b4db49b8e4f39c060831f0f60743684ee74543ee3b9d",
      "blockNumber": "0x37848b5",
      "gasUsed": "0x3a9c9",
      "effectiveGasPrice": "0x6e3a6283",
      "from": "0x6f537dd2e6c75aa585a209a39fbbc41fe50bd515",
      "to": "0x9bad54cad50da7059aaf8bd8b00c3f20594d7841",
      "contractAddress": null
    }
  ],
  "libraries": [],
  "pending": [],
  "returns": {},
  "timestamp": 1741104529,
  "chain": 43114,
  "commit": "594493a"
}