{
  "transactions": [
    {
      "hash": "0xa7fb8a21290ef20c652e4e8d084f94de53817a0051b5dc2e426c65d98a512630",
      "transactionType": "CALL",
      "contractName": null,
      "contractAddress": "0x688b68e2483392af2404778e18e203166412f29b",
      "function": "setMarketDeadline(uint256)",
      "arguments": [
        "4"
      ],
      "transaction": {
        "from": "0xe90cfb1cd42ea306959577e12f577b50ebc0e0a4",
        "to": "0x688b68e2483392af2404778e18e203166412f29b",
        "gas": "0x13df8",
        "value": "0x0",
        "input": "0x710eb63c0000000000000000000000000000000000000000000000000000000000000004",
        "nonce": "0x27",
        "chainId": "0xa86a"
      },
      "additionalContracts": [],
      "isFixedGasLimit": false
    }
  ],
  "receipts": [
    {
      "status": "0x1",
      "cumulativeGasUsed": "0x11442d",
      "logs": [
        {
          "address": "0x688b68e2483392af2404778e18e203166412f29b",
          "topics": [
            "0x1a5ad6952dcb13c068ab646c10e7d499f191cbb7399a30f1c15754d01a19c288",
            "0x0000000000000000000000000000000000000000000000000000000000000004"
          ],
          "data": "0x0000000000000000000000000000000000000000000000000000000067c7fc89",
          "blockHash": "0xbff5678a4fafaffecfb1040c77e0cbbd8beb6a9f68a69e20ec26f77bfbb510b1",
          "blockNumber": "0x378c826",
          "transactionHash": "0xa7fb8a21290ef20c652e4e8d084f94de53817a0051b5dc2e426c65d98a512630",
          "transactionIndex": "0x3",
          "logIndex": "0x1c",
          "removed": false
        }
      ],
      "logsBloom": "0x00000000000000000000000000000000000000000000000000000018000000000000000000000000000000000000000000000000000000000000000000000000000000000000000000000000000000000000000000000000000000000000000008000000000000000000000000010000000000000000000000000000000000000000000000000000000000000000000000000002000000000000000000000000000000000000000000000000000000000000000000000020002000000000000000000000000000000000000000000000000000008000000000000000000000000000010000000000000000000000000000000000000000000000000000000000",
      "type": "0x2",
      "transactionHash": "0xa7fb8a21290ef20c652e4e8d084f94de53817a0051b5dc2e426c65d98a512630",
      "transactionIndex": "0x3",
      "blockHash": "0xbff5678a4fafaffecfb1040c77e0cbbd8beb6a9f68a69e20ec26f77bfbb510b1",
      "blockNumber": "0x378c826",
      "gasUsed": "0xe635",
      "effectiveGasPrice": "0x5c631f80",
      "from": "0xe90cfb1cd42ea306959577e12f577b50ebc0e0a4",
      "to": "0x688b68e2483392af2404778e18e203166412f29b",
      "contractAddress": null
    }
  ],
  "libraries": [],
  "pending": [],
  "returns": {},
  "timestamp": 1741159265,
  "chain": 43114,
  "commit": "2cbd157"
}