{
  "transactions": [
    {
      "hash": "0xd64b6391c64b7c8f0ca5035c98d6d8b5a07f461d4469f24aa07d12985a2dd799",
      "transactionType": "CALL",
      "contractName": null,
      "contractAddress": "0x688b68e2483392af2404778e18e203166412f29b",
      "function": "createMarket(uint256,uint256,uint256,string,bool)",
      "arguments": [
        "300",
        "500",
        "3000",
        "https://jsefytspymrganyrgiom.supabase.co/storage/v1/object/public/premarket_static/metadata/1.json",
        "true"
      ],
      "transaction": {
        "from": "0xe90cfb1cd42ea306959577e12f577b50ebc0e0a4",
        "to": "0x688b68e2483392af2404778e18e203166412f29b",
        "gas": "0x50ed5",
        "value": "0x0",
        "input": "0xd142d548000000000000000000000000000000000000000000000000000000000000012c00000000000000000000000000000000000000000000000000000000000001f40000000000000000000000000000000000000000000000000000000000000bb800000000000000000000000000000000000000000000000000000000000000a00000000000000000000000000000000000000000000000000000000000000001000000000000000000000000000000000000000000000000000000000000006268747470733a2f2f6a73656679747370796d7267616e797267696f6d2e73757061626173652e636f2f73746f726167652f76312f6f626a6563742f7075626c69632f7072656d61726b65745f7374617469632f6d657461646174612f312e6a736f6e000000000000000000000000000000000000000000000000000000000000",
        "nonce": "0x21",
        "chainId": "0xa86a"
      },
      "additionalContracts": [],
      "isFixedGasLimit": false
    }
  ],
  "receipts": [
    {
      "status": "0x1",
      "cumulativeGasUsed": "0x1f34ae",
      "logs": [
        {
          "address": "0x688b68e2483392af2404778e18e203166412f29b",
          "topics": [
            "0x25b2eff8f9cbb97c6c73adf7d94f4f8956260becc65ab075709db7561914a2b1",
            "0x0000000000000000000000000000000000000000000000000000000000000005"
          ],
          "data": "0x",
          "blockHash": "0x79c84e707a171e2225284657e9fec08c519e9bff2e874923c93fcfd8f812ae7a",
          "blockNumber": "0x378c663",
          "transactionHash": "0xd64b6391c64b7c8f0ca5035c98d6d8b5a07f461d4469f24aa07d12985a2dd799",
          "transactionIndex": "0x2",
          "logIndex": "0xb",
          "removed": false
        }
      ],
      "logsBloom": "0x00000000000000000000000000000000000000000000000000000018000000000000000400000000000000000000000000000000000000000000000000000000000010000000000000000000000000000000000000000000000000000000000000000000000000000000000000000000000000000000000000000000000000000000100000000000000000000000001000000800000000000004000000000000000000000000000000000000000000000000000000000020000000000000000000000000000000000000000000000000000000000000000000000000000000000000000000000000000000000000000000000000000000000000000000000000",
      "type": "0x2",
      "transactionHash": "0xd64b6391c64b7c8f0ca5035c98d6d8b5a07f461d4469f24aa07d12985a2dd799",
      "transactionIndex": "0x2",
      "blockHash": "0x79c84e707a171e2225284657e9fec08c519e9bff2e874923c93fcfd8f812ae7a",
      "blockNumber": "0x378c663",
      "gasUsed": "0x3a970",
      "effectiveGasPrice": "0x3b9aca01",
      "from": "0xe90cfb1cd42ea306959577e12f577b50ebc0e0a4",
      "to": "0x688b68e2483392af2404778e18e203166412f29b",
      "contractAddress": null
    }
  ],
  "libraries": [],
  "pending": [],
  "returns": {},
  "timestamp": 1741158420,
  "chain": 43114,
  "commit": "2cbd157"
}