{
  "transactions": [
    {
      "hash": "0x6ea19ff58eeb796774bd03e2dbae1877c7dafea2118ff07e0cbfe3836fd93f24",
      "transactionType": "CALL",
      "contractName": null,
      "contractAddress": "0x9bad54cad50da7059aaf8bd8b00c3f20594d7841",
      "function": "stopMarket(uint256)",
      "arguments": [
        "4"
      ],
      "transaction": {
        "from": "0x6f537dd2e6c75aa585a209a39fbbc41fe50bd515",
        "to": "0x9bad54cad50da7059aaf8bd8b00c3f20594d7841",
        "gas": "0xac0a",
        "value": "0x0",
        "input": "0xda7432700000000000000000000000000000000000000000000000000000000000000004",
        "nonce": "0x3d",
        "chainId": "0xa86a"
      },
      "additionalContracts": [],
      "isFixedGasLimit": false
    },
    {
      "hash": "0x30090b015b4eb3be06049b8269434e48182ca03ab4ddd9f844cdeeda1bd7ddb3",
      "transactionType": "CALL",
      "contractName": null,
      "contractAddress": "0x9bad54cad50da7059aaf8bd8b00c3f20594d7841",
      "function": "setMarketTokenDetails(uint256,uint256,address)",
      "arguments": [
        "4",
        "110000000000000000000",
        "0x6f537Dd2E6C75Aa585A209A39FbbC41Fe50bd515"
      ],
      "transaction": {
        "from": "0x6f537dd2e6c75aa585a209a39fbbc41fe50bd515",
        "to": "0x9bad54cad50da7059aaf8bd8b00c3f20594d7841",
        "gas": "0x1b038",
        "value": "0x0",
        "input": "0xe67985760000000000000000000000000000000000000000000000000000000000000004000000000000000000000000000000000000000000000005f68e8131ecf800000000000000000000000000006f537dd2e6c75aa585a209a39fbbc41fe50bd515",
        "nonce": "0x3e",
        "chainId": "0xa86a"
      },
      "additionalContracts": [],
      "isFixedGasLimit": false
    },
    {
      "hash": "0x7ae07a7edf75faea29209ff7c817b7ab4fbbde81ef481da36bcd72104f644a43",
      "transactionType": "CALL",
      "contractName": null,
      "contractAddress": "0x9bad54cad50da7059aaf8bd8b00c3f20594d7841",
      "function": "setMarketDeadline(uint256)",
      "arguments": [
        "4"
      ],
      "transaction": {
        "from": "0x6f537dd2e6c75aa585a209a39fbbc41fe50bd515",
        "to": "0x9bad54cad50da7059aaf8bd8b00c3f20594d7841",
        "gas": "0x13dd8",
        "value": "0x0",
        "input": "0x710eb63c0000000000000000000000000000000000000000000000000000000000000004",
        "nonce": "0x3f",
        "chainId": "0xa86a"
      },
      "additionalContracts": [],
      "isFixedGasLimit": false
    }
  ],
  "receipts": [
    {
      "status": "0x1",
      "cumulativeGasUsed": "0x4974c",
      "logs": [
        {
          "address": "0x9bad54cad50da7059aaf8bd8b00c3f20594d7841",
          "topics": [
            "0x3e98550804b3085d9a3d92f7d32feb7fad271533c8e1bb6bd1e3302c36822a9a",
            "0x0000000000000000000000000000000000000000000000000000000000000004"
          ],
          "data": "0x",
          "blockHash": "0x9a4e7378f0edb79e1e499c5b7eb9e06285458503f4f061cf35d5f16da38c11f3",
          "blockNumber": "0x378543a",
          "transactionHash": "0x6ea19ff58eeb796774bd03e2dbae1877c7dafea2118ff07e0cbfe3836fd93f24",
          "transactionIndex": "0x4",
          "logIndex": "0x3",
          "removed": false
        }
      ],
      "logsBloom": "0x00000000000000000000000000000000000000000000000000000000000000000000000000000000000000400000000000000000000000000000000000000000000000000000000000000000000000000000000020000000000200000000000008000000000000000000000000000000000000040000000000000000000000000000000000000000000000000000000000000000000000000000000000000000000000000000000000000000000000000000000000000000002000000000000000000000000000000000000000400000000000008000000000000000000000000000000000000000000020000000000000000000000000000000000000000000",
      "type": "0x2",
      "transactionHash": "0x6ea19ff58eeb796774bd03e2dbae1877c7dafea2118ff07e0cbfe3836fd93f24",
      "transactionIndex": "0x4",
      "blockHash": "0x9a4e7378f0edb79e1e499c5b7eb9e06285458503f4f061cf35d5f16da38c11f3",
      "blockNumber": "0x378543a",
      "gasUsed": "0x75a3",
      "effectiveGasPrice": "0xb83e74e5",
      "from": "0x6f537dd2e6c75aa585a209a39fbbc41fe50bd515",
      "to": "0x9bad54cad50da7059aaf8bd8b00c3f20594d7841",
      "contractAddress": null
    },
    {
      "status": "0x1",
      "cumulativeGasUsed": "0x5bed5",
      "logs": [
        {
          "address": "0x9bad54cad50da7059aaf8bd8b00c3f20594d7841",
          "topics": [
            "0xbe087bdc22e97c7d7df5e0d572e283071d6fae09a18ca90c77c4999a495ea2a6",
            "0x0000000000000000000000000000000000000000000000000000000000000004"
          ],
          "data": "0x000000000000000000000000000000000000000000000005f68e8131ecf800000000000000000000000000006f537dd2e6c75aa585a209a39fbbc41fe50bd515",
          "blockHash": "0x9a4e7378f0edb79e1e499c5b7eb9e06285458503f4f061cf35d5f16da38c11f3",
          "blockNumber": "0x378543a",
          "transactionHash": "0x30090b015b4eb3be06049b8269434e48182ca03ab4ddd9f844cdeeda1bd7ddb3",
          "transactionIndex": "0x5",
          "logIndex": "0x4",
          "removed": false
        }
      ],
      "logsBloom": "0x00000000000000000000000000000000000000000000000000000000000020000000000000000000000000400000000000000000000000000000000000000000000000000000000000000000000000000000000020000000000000000000000008040000000000000000000000800000000000040000000000000000000000000000000000000000000000000000000000000000000000000000000000000000000000000000000000000000000000000000000000000000002000000000000000000000000000000000000000000000000000008000000000000000000000000000000000000000000000000000000000000000000000000000000000000000",
      "type": "0x2",
      "transactionHash": "0x30090b015b4eb3be06049b8269434e48182ca03ab4ddd9f844cdeeda1bd7ddb3",
      "transactionIndex": "0x5",
      "blockHash": "0x9a4e7378f0edb79e1e499c5b7eb9e06285458503f4f061cf35d5f16da38c11f3",
      "blockNumber": "0x378543a",
      "gasUsed": "0x12789",
      "effectiveGasPrice": "0xb83e74e5",
      "from": "0x6f537dd2e6c75aa585a209a39fbbc41fe50bd515",
      "to": "0x9bad54cad50da7059aaf8bd8b00c3f20594d7841",
      "contractAddress": null
    },
    {
      "status": "0x1",
      "cumulativeGasUsed": "0x6a4f3",
      "logs": [
        {
          "address": "0x9bad54cad50da7059aaf8bd8b00c3f20594d7841",
          "topics": [
            "0x1a5ad6952dcb13c068ab646c10e7d499f191cbb7399a30f1c15754d01a19c288",
            "0x0000000000000000000000000000000000000000000000000000000000000004"
          ],
          "data": "0x0000000000000000000000000000000000000000000000000000000067c88871",
          "blockHash": "0x9a4e7378f0edb79e1e499c5b7eb9e06285458503f4f061cf35d5f16da38c11f3",
          "blockNumber": "0x378543a",
          "transactionHash": "0x7ae07a7edf75faea29209ff7c817b7ab4fbbde81ef481da36bcd72104f644a43",
          "transactionIndex": "0x6",
          "logIndex": "0x5",
          "removed": false
        }
      ],
      "logsBloom": "0x00000000000000000000000000000000000000000000000000000000000000000000000000000000000000400000000000000000000000000000000000000000000000000000000000000000000000000000000020000000000000000000000008000000000000000000000000010000000000040000000000000000000000000000000000000000000000000000000000000002000000000000000000000000000000000000000000000000000000000000000000000000002000000000000000000000000000000000000000000000000000008000000000000000000000000000010000000000000000000000000000000000000000000000000000000000",
      "type": "0x2",
      "transactionHash": "0x7ae07a7edf75faea29209ff7c817b7ab4fbbde81ef481da36bcd72104f644a43",
      "transactionIndex": "0x6",
      "blockHash": "0x9a4e7378f0edb79e1e499c5b7eb9e06285458503f4f061cf35d5f16da38c11f3",
      "blockNumber": "0x378543a",
      "gasUsed": "0xe61e",
      "effectiveGasPrice": "0xb83e74e5",
      "from": "0x6f537dd2e6c75aa585a209a39fbbc41fe50bd515",
      "to": "0x9bad54cad50da7059aaf8bd8b00c3f20594d7841",
      "contractAddress": null
    }
  ],
  "libraries": [],
  "pending": [],
  "returns": {},
  "timestamp": 1741108980,
  "chain": 43114,
  "commit": "594493a"
}