{
  "transactions": [
    {
      "hash": "0x12e54e1c1793fb635819f0755bc6966f431421022c6749689ddf4c7722cab83e",
      "transactionType": "CALL",
      "contractName": null,
      "contractAddress": "0x688b68e2483392af2404778e18e203166412f29b",
      "function": "setMarketTokenDetails(uint256,uint256,address)",
      "arguments": [
        "4",
        "20000000000000000000",
        "0x3028386fFD36494f861df4dafC6Ed6A8A9719243"
      ],
      "transaction": {
        "from": "0xe90cfb1cd42ea306959577e12f577b50ebc0e0a4",
        "to": "0x688b68e2483392af2404778e18e203166412f29b",
        "gas": "0x19872",
        "value": "0x0",
        "input": "0xe67985760000000000000000000000000000000000000000000000000000000000000004000000000000000000000000000000000000000000000001158e460913d000000000000000000000000000003028386ffd36494f861df4dafc6ed6a8a9719243",
        "nonce": "0x22",
        "chainId": "0xa86a"
      },
      "additionalContracts": [],
      "isFixedGasLimit": false
    }
  ],
  "receipts": [
    {
      "status": "0x1",
      "cumulativeGasUsed": "0xef3d6",
      "logs": [
        {
          "address": "0x688b68e2483392af2404778e18e203166412f29b",
          "topics": [
            "0xbe087bdc22e97c7d7df5e0d572e283071d6fae09a18ca90c77c4999a495ea2a6",
            "0x0000000000000000000000000000000000000000000000000000000000000004"
          ],
          "data": "0x000000000000000000000000000000000000000000000001158e460913d000000000000000000000000000003028386ffd36494f861df4dafc6ed6a8a9719243",
          "blockHash": "0xacf6373108951c1d196f550664b024ad6f652a2648090e361c5fd964d84ff6dc",
          "blockNumber": "0x378c690",
          "transactionHash": "0x12e54e1c1793fb635819f0755bc6966f431421022c6749689ddf4c7722cab83e",
          "transactionIndex": "0x2",
          "logIndex": "0x3",
          "removed": false
        }
      ],
      "logsBloom": "0x00000000000000000000000000000000000000000000000000000018000020000000000000000000000000000000000000000000000000000000000000000000000000000000000000000000000000000000000000000000000000000000000008040000000000000000000000800000000000000000000000000000000000000000000000000000000000000000000000000000000000000000000000000000000000000000000000000000000000000000000000000020002000000000000000000000000000000000000000000000000000008000000000000000000000000000000000000000000000000000000000000000000000000000000000000000",
      "type": "0x2",
      "transactionHash": "0x12e54e1c1793fb635819f0755bc6966f431421022c6749689ddf4c7722cab83e",
      "transactionIndex": "0x2",
      "blockHash": "0xacf6373108951c1d196f550664b024ad6f652a2648090e361c5fd964d84ff6dc",
      "blockNumber": "0x378c690",
      "gasUsed": "0x127b6",
      "effectiveGasPrice": "0x4a817c80",
      "from": "0xe90cfb1cd42ea306959577e12f577b50ebc0e0a4",
      "to": "0x688b68e2483392af2404778e18e203166412f29b",
      "contractAddress": null
    }
  ],
  "libraries": [],
  "pending": [],
  "returns": {},
  "timestamp": 1741158499,
  "chain": 43114,
  "commit": "2cbd157"
}