{
  "transactions": [
    {
      "hash": "0x219cc73f32ac3790116e3533ac68707d1020d6ea59cb054a1d521771c7c238ef",
      "transactionType": "CALL",
      "contractName": null,
      "contractAddress": "0x9bad54cad50da7059aaf8bd8b00c3f20594d7841",
      "function": "stopMarket(uint256)",
      "arguments": [
        "5"
      ],
      "transaction": {
        "from": "0x6f537dd2e6c75aa585a209a39fbbc41fe50bd515",
        "to": "0x9bad54cad50da7059aaf8bd8b00c3f20594d7841",
        "gas": "0xac0a",
        "value": "0x0",
        "input": "0xda7432700000000000000000000000000000000000000000000000000000000000000005",
        "nonce": "0x45",
        "chainId": "0xa86a"
      },
      "additionalContracts": [],
      "isFixedGasLimit": false
    },
    {
      "hash": "0x4002df7ebd9423998da49a456f065e020e0ac07251f81a1bb751df1af3efb729",
      "transactionType": "CALL",
      "contractName": null,
      "contractAddress": "0x9bad54cad50da7059aaf8bd8b00c3f20594d7841",
      "function": "setMarketTokenDetails(uint256,uint256,address)",
      "arguments": [
        "5",
        "110000000000000000000",
        "0x5Ae5f0b8cbCf6F1f3fD942B748e1b6E7b107F0ea"
      ],
      "transaction": {
        "from": "0x6f537dd2e6c75aa585a209a39fbbc41fe50bd515",
        "to": "0x9bad54cad50da7059aaf8bd8b00c3f20594d7841",
        "gas": "0x1b038",
        "value": "0x0",
        "input": "0xe67985760000000000000000000000000000000000000000000000000000000000000005000000000000000000000000000000000000000000000005f68e8131ecf800000000000000000000000000005ae5f0b8cbcf6f1f3fd942b748e1b6e7b107f0ea",
        "nonce": "0x46",
        "chainId": "0xa86a"
      },
      "additionalContracts": [],
      "isFixedGasLimit": false
    },
    {
      "hash": "0xf3721b87f6b1be8410876a5cb43a1721e799fd7a224932c87cd5e4e7c25ffb0f",
      "transactionType": "CALL",
      "contractName": null,
      "contractAddress": "0x9bad54cad50da7059aaf8bd8b00c3f20594d7841",
      "function": "setMarketDeadline(uint256)",
      "arguments": [
        "5"
      ],
      "transaction": {
        "from": "0x6f537dd2e6c75aa585a209a39fbbc41fe50bd515",
        "to": "0x9bad54cad50da7059aaf8bd8b00c3f20594d7841",
        "gas": "0x13dd8",
        "value": "0x0",
        "input": "0x710eb63c0000000000000000000000000000000000000000000000000000000000000005",
        "nonce": "0x47",
        "chainId": "0xa86a"
      },
      "additionalContracts": [],
      "isFixedGasLimit": false
    }
  ],
  "receipts": [
    {
      "status": "0x1",
      "cumulativeGasUsed": "0x3eed79",
      "logs": [
        {
          "address": "0x9bad54cad50da7059aaf8bd8b00c3f20594d7841",
          "topics": [
            "0x3e98550804b3085d9a3d92f7d32feb7fad271533c8e1bb6bd1e3302c36822a9a",
            "0x0000000000000000000000000000000000000000000000000000000000000005"
          ],
          "data": "0x",
          "blockHash": "0xf1b283ddd18d7b6bed5a2097030e6067cb921bb0c09532415621498e8611ff0a",
          "blockNumber": "0x378596b",
          "transactionHash": "0x219cc73f32ac3790116e3533ac68707d1020d6ea59cb054a1d521771c7c238ef",
          "transactionIndex": "0x15",
          "logIndex": "0x4e",
          "removed": false
        }
      ],
      "logsBloom": "0x00000000000000000000000000000000000000000000000000000000000000000000000000000000000000400000000000000000000000000000000000000000000010000000000000000000000000000000000020000000000200000000000000000000000000000000000000000000000000040000000000000000000000000000000000000000000000000000001000000800000000000000000000000000000000000000000000000000000000000000000000000000000000000000000000000000000000000000000000400000000000000000000000000000000000000000000000000000000020000000000000000000000000000000000000000000",
      "type": "0x2",
      "transactionHash": "0x219cc73f32ac3790116e3533ac68707d1020d6ea59cb054a1d521771c7c238ef",
      "transactionIndex": "0x15",
      "blockHash": "0xf1b283ddd18d7b6bed5a2097030e6067cb921bb0c09532415621498e8611ff0a",
      "blockNumber": "0x378596b",
      "gasUsed": "0x75a3",
      "effectiveGasPrice": "0x4fdb03e0",
      "from": "0x6f537dd2e6c75aa585a209a39fbbc41fe50bd515",
      "to": "0x9bad54cad50da7059aaf8bd8b00c3f20594d7841",
      "contractAddress": null
    },
    {
      "status": "0x1",
      "cumulativeGasUsed": "0x401502",
      "logs": [
        {
          "address": "0x9bad54cad50da7059aaf8bd8b00c3f20594d7841",
          "topics": [
            "0xbe087bdc22e97c7d7df5e0d572e283071d6fae09a18ca90c77c4999a495ea2a6",
            "0x0000000000000000000000000000000000000000000000000000000000000005"
          ],
          "data": "0x000000000000000000000000000000000000000000000005f68e8131ecf800000000000000000000000000005ae5f0b8cbcf6f1f3fd942b748e1b6e7b107f0ea",
          "blockHash": "0xf1b283ddd18d7b6bed5a2097030e6067cb921bb0c09532415621498e8611ff0a",
          "blockNumber": "0x378596b",
          "transactionHash": "0x4002df7ebd9423998da49a456f065e020e0ac07251f81a1bb751df1af3efb729",
          "transactionIndex": "0x16",
          "logIndex": "0x4f",
          "removed": false
        }
      ],
      "logsBloom": "0x00000000000000000000000000000000000000000000000000000000000020000000000000000000000000400000000000000000000000000000000000000000000010000000000000000000000000000000000020000000000000000000000000040000000000000000000000800000000000040000000000000000000000000000000000000000000000000000001000000800000000000000000000000000000000000000000000000000000000000000000000000000000000000000000000000000000000000000000000000000000000000000000000000000000000000000000000000000000000000000000000000000000000000000000000000000",
      "type": "0x2",
      "transactionHash": "0x4002df7ebd9423998da49a456f065e020e0ac07251f81a1bb751df1af3efb729",
      "transactionIndex": "0x16",
      "blockHash": "0xf1b283ddd18d7b6bed5a2097030e6067cb921bb0c09532415621498e8611ff0a",
      "blockNumber": "0x378596b",
      "gasUsed": "0x12789",
      "effectiveGasPrice": "0x4fdb03e0",
      "from": "0x6f537dd2e6c75aa585a209a39fbbc41fe50bd515",
      "to": "0x9bad54cad50da7059aaf8bd8b00c3f20594d7841",
      "contractAddress": null
    },
    {
      "status": "0x1",
      "cumulativeGasUsed": "0x40fb20",
      "logs": [
        {
          "address": "0x9bad54cad50da7059aaf8bd8b00c3f20594d7841",
          "topics": [
            "0x1a5ad6952dcb13c068ab646c10e7d499f191cbb7399a30f1c15754d01a19c288",
            "0x0000000000000000000000000000000000000000000000000000000000000005"
          ],
          "data": "0x0000000000000000000000000000000000000000000000000000000067c74070",
          "blockHash": "0xf1b283ddd18d7b6bed5a2097030e6067cb921bb0c09532415621498e8611ff0a",
          "blockNumber": "0x378596b",
          "transactionHash": "0xf3721b87f6b1be8410876a5cb43a1721e799fd7a224932c87cd5e4e7c25ffb0f",
          "transactionIndex": "0x17",
          "logIndex": "0x50",
          "removed": false
        }
      ],
      "logsBloom": "0x00000000000000000000000000000000000000000000000000000000000000000000000000000000000000400000000000000000000000000000000000000000000010000000000000000000000000000000000020000000000000000000000000000000000000000000000000010000000000040000000000000000000000000000000000000000000000000000001000000802000000000000000000000000000000000000000000000000000000000000000000000000000000000000000000000000000000000000000000000000000000000000000000000000000000000000010000000000000000000000000000000000000000000000000000000000",
      "type": "0x2",
      "transactionHash": "0xf3721b87f6b1be8410876a5cb43a1721e799fd7a224932c87cd5e4e7c25ffb0f",
      "transactionIndex": "0x17",
      "blockHash": "0xf1b283ddd18d7b6bed5a2097030e6067cb921bb0c09532415621498e8611ff0a",
      "blockNumber": "0x378596b",
      "gasUsed": "0xe61e",
      "effectiveGasPrice": "0x4fdb03e0",
      "from": "0x6f537dd2e6c75aa585a209a39fbbc41fe50bd515",
      "to": "0x9bad54cad50da7059aaf8bd8b00c3f20594d7841",
      "contractAddress": null
    }
  ],
  "libraries": [],
  "pending": [],
  "returns": {},
  "timestamp": 1741110810,
  "chain": 43114,
  "commit": "6ffe5d4"
}