{
  "transactions": [
    {
      "hash": "0x0dada6b4dc32e05fcf1da72f19f8fc1ed4394c4e1185d12d70b544bad17d1678",
      "transactionType": "CALL",
      "contractName": null,
      "contractAddress": "0x2cafd0a56c880231cd38f7040bcf764939a42c86",
      "function": "setMarketTokenDetails(uint256,uint256,address)",
      "arguments": [
        "1",
        "209000000000000000000000",
        "0x885c3a3A4998f0b5ac367A46217E68A200737A32"
      ],
      "transaction": {
        "from": "0xe90cfb1cd42ea306959577e12f577b50ebc0e0a4",
        "to": "0x2cafd0a56c880231cd38f7040bcf764939a42c86",
        "gas": "0x19872",
        "value": "0x0",
        "input": "0xe67985760000000000000000000000000000000000000000000000000000000000000001000000000000000000000000000000000000000000002c41e9a6de8ac0a00000000000000000000000000000885c3a3a4998f0b5ac367a46217e68a200737a32",
        "nonce": "0x31",
        "chainId": "0xa86a"
      },
      "additionalContracts": [],
      "isFixedGasLimit": false
    },
    {
      "hash": "0x9db8c53cdcc99828fcbb575da50c43986c88a4ebbf3e2e03c2f5f178264ae6ab",
      "transactionType": "CALL",
      "contractName": null,
      "contractAddress": "0x2cafd0a56c880231cd38f7040bcf764939a42c86",
      "function": "setMarketDeadline(uint256)",
      "arguments": [
        "1"
      ],
      "transaction": {
        "from": "0xe90cfb1cd42ea306959577e12f577b50ebc0e0a4",
        "to": "0x2cafd0a56c880231cd38f7040bcf764939a42c86",
        "gas": "0x13df8",
        "value": "0x0",
        "input": "0x710eb63c0000000000000000000000000000000000000000000000000000000000000001",
        "nonce": "0x32",
        "chainId": "0xa86a"
      },
      "additionalContracts": [],
      "isFixedGasLimit": false
    }
  ],
  "receipts": [
    {
      "status": "0x1",
      "cumulativeGasUsed": "0x17fcd8",
      "logs": [
        {
          "address": "0x2cafd0a56c880231cd38f7040bcf764939a42c86",
          "topics": [
            "0xbe087bdc22e97c7d7df5e0d572e283071d6fae09a18ca90c77c4999a495ea2a6",
            "0x0000000000000000000000000000000000000000000000000000000000000001"
          ],
          "data": "0x000000000000000000000000000000000000000000002c41e9a6de8ac0a00000000000000000000000000000885c3a3a4998f0b5ac367a46217e68a200737a32",
          "blockHash": "0x7cdb4a903e8c78ff251eda6e0bd867ac12fbd748334d84fe25c65938b5acd9d0",
          "blockNumber": "0x3791d85",
          "transactionHash": "0x0dada6b4dc32e05fcf1da72f19f8fc1ed4394c4e1185d12d70b544bad17d1678",
          "transactionIndex": "0xa",
          "logIndex": "0x29",
          "removed": false
        }
      ],
      "logsBloom": "0x00000000000000000000000000000000000000000000000000000000000020000000000000000000000000000000000000000000000000000000000000040000000000002000000000000000000000000000000000040000000000000000000000040000000000000000000000800000000000000000000000000000000000000000000000000000000000000000000000000000000000000000000000000000000000000000000000000000000000000000000000000000000000100000200000000000000000000000000000000000000000000000000000000000000040000000000000000000000000000000000000000000000000000000000000000000",
      "type": "0x2",
      "transactionHash": "0x0dada6b4dc32e05fcf1da72f19f8fc1ed4394c4e1185d12d70b544bad17d1678",
      "transactionIndex": "0xa",
      "blockHash": "0x7cdb4a903e8c78ff251eda6e0bd867ac12fbd748334d84fe25c65938b5acd9d0",
      "blockNumber": "0x3791d85",
      "gasUsed": "0x127b6",
      "effectiveGasPrice": "0xa1d296312",
      "from": "0xe90cfb1cd42ea306959577e12f577b50ebc0e0a4",
      "to": "0x2cafd0a56c880231cd38f7040bcf764939a42c86",
      "contractAddress": null
    },
    {
      "status": "0x1",
      "cumulativeGasUsed": "0x18e30d",
      "logs": [
        {
          "address": "0x2cafd0a56c880231cd38f7040bcf764939a42c86",
          "topics": [
            "0x1a5ad6952dcb13c068ab646c10e7d499f191cbb7399a30f1c15754d01a19c288",
            "0x0000000000000000000000000000000000000000000000000000000000000001"
          ],
          "data": "0x0000000000000000000000000000000000000000000000000000000067c9d52f",
          "blockHash": "0x7cdb4a903e8c78ff251eda6e0bd867ac12fbd748334d84fe25c65938b5acd9d0",
          "blockNumber": "0x3791d85",
          "transactionHash": "0x9db8c53cdcc99828fcbb575da50c43986c88a4ebbf3e2e03c2f5f178264ae6ab",
          "transactionIndex": "0xb",
          "logIndex": "0x2a",
          "removed": false
        }
      ],
      "logsBloom": "0x00000000000000000000000000000000000000000000000000000000000000000000000000000000000000000000000000000000000000000000000000040000000000002000000000000000000000000000000000040000000000000000000000000000000000000000000000010000000000000000000000000000000000000000000000000000000000000000000000000002000000000000000000000000000000000000000000000000000000000000000000000000000000100000200000000000000000000000000000000000000000000000000000000000000040000000010000000000000000000000000000000000000000000000000000000000",
      "type": "0x2",
      "transactionHash": "0x9db8c53cdcc99828fcbb575da50c43986c88a4ebbf3e2e03c2f5f178264ae6ab",
      "transactionIndex": "0xb",
      "blockHash": "0x7cdb4a903e8c78ff251eda6e0bd867ac12fbd748334d84fe25c65938b5acd9d0",
      "blockNumber": "0x3791d85",
      "gasUsed": "0xe635",
      "effectiveGasPrice": "0xa1d296312",
      "from": "0xe90cfb1cd42ea306959577e12f577b50ebc0e0a4",
      "to": "0x2cafd0a56c880231cd38f7040bcf764939a42c86",
      "contractAddress": null
    }
  ],
  "libraries": [],
  "pending": [],
  "returns": {},
  "timestamp": 1741194162,
  "chain": 43114,
  "commit": "2cbd157"
}