{
  "transactions": [
    {
      "hash": "0xfdfceb5fc7c9a6d77b99ae2b983b5c0942aa5c6b7125735ce89f943724638d0c",
      "transactionType": "CALL",
      "contractName": null,
      "contractAddress": "0x2cafd0a56c880231cd38f7040bcf764939a42c86",
      "function": "createMarket(uint256,uint256,uint256,string,bool)",
      "arguments": [
        "86400",
        "500",
        "3000",
        "https://jsefytspymrganyrgiom.supabase.co/storage/v1/object/public/premarket_static/metadata/1.json",
        "true"
      ],
      "transaction": {
        "from": "0xe90cfb1cd42ea306959577e12f577b50ebc0e0a4",
        "to": "0x2cafd0a56c880231cd38f7040bcf764939a42c86",
        "gas": "0x56b29",
        "value": "0x0",
        "input": "0xd142d548000000000000000000000000000000000000000000000000000000000001518000000000000000000000000000000000000000000000000000000000000001f40000000000000000000000000000000000000000000000000000000000000bb800000000000000000000000000000000000000000000000000000000000000a00000000000000000000000000000000000000000000000000000000000000001000000000000000000000000000000000000000000000000000000000000006268747470733a2f2f6a73656679747370796d7267616e797267696f6d2e73757061626173652e636f2f73746f726167652f76312f6f626a6563742f7075626c69632f7072656d61726b65745f7374617469632f6d657461646174612f312e6a736f6e000000000000000000000000000000000000000000000000000000000000",
        "nonce": "0x2d",
        "chainId": "0xa86a"
      },
      "additionalContracts": [],
      "isFixedGasLimit": false
    }
  ],
  "receipts": [
    {
      "status": "0x1",
      "cumulativeGasUsed": "0xa494a",
      "logs": [
        {
          "address": "0x2cafd0a56c880231cd38f7040bcf764939a42c86",
          "topics": [
            "0x25b2eff8f9cbb97c6c73adf7d94f4f8956260becc65ab075709db7561914a2b1",
            "0x0000000000000000000000000000000000000000000000000000000000000001"
          ],
          "data": "0x",
          "blockHash": "0x1e2ef0bee1c3d36567a2d1097c70d7336b4381d73bba99f79b336d0c0b84b2a2",
          "blockNumber": "0x378cb4c",
          "transactionHash": "0xfdfceb5fc7c9a6d77b99ae2b983b5c0942aa5c6b7125735ce89f943724638d0c",
          "transactionIndex": "0x5",
          "logIndex": "0x4",
          "removed": false
        }
      ],
      "logsBloom": "0x00000000000000000000000000000000000000000000000000000000000000000000000400000000000000000000000000000000000000000000000000040000000000002000000000000000000000000000000000040000000000000000000000000000000000000000000000000000000000000000000000000000000000000000100000000000000000000000000000000000000000000004000000000000000000000000000000000000000000000000000000000000000000100000200000000000000000000000000000000000000000000000000000000000000040000000000000000000000000000000000000000000000000000000000000000000",
      "type": "0x2",
      "transactionHash": "0xfdfceb5fc7c9a6d77b99ae2b983b5c0942aa5c6b7125735ce89f943724638d0c",
      "transactionIndex": "0x5",
      "blockHash": "0x1e2ef0bee1c3d36567a2d1097c70d7336b4381d73bba99f79b336d0c0b84b2a2",
      "blockNumber": "0x378cb4c",
      "gasUsed": "0x3ec48",
      "effectiveGasPrice": "0x47416999",
      "from": "0xe90cfb1cd42ea306959577e12f577b50ebc0e0a4",
      "to": "0x2cafd0a56c880231cd38f7040bcf764939a42c86",
      "contractAddress": null
    }
  ],
  "libraries": [],
  "pending": [],
  "returns": {},
  "timestamp": 1741160777,
  "chain": 43114,
  "commit": "2cbd157"
}