{
  "transactions": [
    {
      "hash": "0x00ced514f412472ca2c4b891454646126a36a2e7f4d9b3dd9833b4190deeddb0",
      "transactionType": "CALL",
      "contractName": null,
      "contractAddress": "0x688b68e2483392af2404778e18e203166412f29b",
      "function": "createMarket(uint256,uint256,uint256,string,bool)",
      "arguments": [
        "300",
        "500",
        "3000",
        "https://jsefytspymrganyrgiom.supabase.co/storage/v1/object/public/premarket_static/metadata/1.json",
        "true"
      ],
      "transaction": {
        "from": "0xe90cfb1cd42ea306959577e12f577b50ebc0e0a4",
        "to": "0x688b68e2483392af2404778e18e203166412f29b",
        "gas": "0x50ed5",
        "value": "0x0",
        "input": "0xd142d548000000000000000000000000000000000000000000000000000000000000012c00000000000000000000000000000000000000000000000000000000000001f40000000000000000000000000000000000000000000000000000000000000bb800000000000000000000000000000000000000000000000000000000000000a00000000000000000000000000000000000000000000000000000000000000001000000000000000000000000000000000000000000000000000000000000006268747470733a2f2f6a73656679747370796d7267616e797267696f6d2e73757061626173652e636f2f73746f726167652f76312f6f626a6563742f7075626c69632f7072656d61726b65745f7374617469632f6d657461646174612f312e6a736f6e000000000000000000000000000000000000000000000000000000000000",
        "nonce": "0x20",
        "chainId": "0xa86a"
      },
      "additionalContracts": [],
      "isFixedGasLimit": false
    }
  ],
  "receipts": [
    {
      "status": "0x1",
      "cumulativeGasUsed": "0x51da3",
      "logs": [
        {
          "address": "0x688b68e2483392af2404778e18e203166412f29b",
          "topics": [
            "0x25b2eff8f9cbb97c6c73adf7d94f4f8956260becc65ab075709db7561914a2b1",
            "0x0000000000000000000000000000000000000000000000000000000000000004"
          ],
          "data": "0x",
          "blockHash": "0xf775c40daeb7e2ff8786cf7567d5335eb55c835e7b7cb753dc1014c78af7135d",
          "blockNumber": "0x378c5e5",
          "transactionHash": "0x00ced514f412472ca2c4b891454646126a36a2e7f4d9b3dd9833b4190deeddb0",
          "transactionIndex": "0x2",
          "logIndex": "0x1",
          "removed": false
        }
      ],
      "logsBloom": "0x00000000000000000000000000000000000000000000000000000018000000000000000400000000000000000000000000000000000000000000000000000000000000000000000000000000000000000000000000000000000000000000000008000000000000000000000000000000000000000000000000000000000000000000100000000000000000000000000000000000000000000004000000000000000000000000000000000000000000000000000000000020002000000000000000000000000000000000000000000000000000008000000000000000000000000000000000000000000000000000000000000000000000000000000000000000",
      "type": "0x2",
      "transactionHash": "0x00ced514f412472ca2c4b891454646126a36a2e7f4d9b3dd9833b4190deeddb0",
      "transactionIndex": "0x2",
      "blockHash": "0xf775c40daeb7e2ff8786cf7567d5335eb55c835e7b7cb753dc1014c78af7135d",
      "blockNumber": "0x378c5e5",
      "gasUsed": "0x3a970",
      "effectiveGasPrice": "0x47488fa9",
      "from": "0xe90cfb1cd42ea306959577e12f577b50ebc0e0a4",
      "to": "0x688b68e2483392af2404778e18e203166412f29b",
      "contractAddress": null
    }
  ],
  "libraries": [],
  "pending": [],
  "returns": {},
  "timestamp": 1741158199,
  "chain": 43114,
  "commit": "2cbd157"
}