{
  "transactions": [
    {
      "hash": "0xaaff0fc9dc072470b06b7ce229e4186d657dd7bed589a01ece6a358d888b79fd",
      "transactionType": "CALL",
      "contractName": null,
      "contractAddress": "0x2cafd0a56c880231cd38f7040bcf764939a42c86",
      "function": "stopMarket(uint256)",
      "arguments": [
        "1"
      ],
      "transaction": {
        "from": "0xe90cfb1cd42ea306959577e12f577b50ebc0e0a4",
        "to": "0x2cafd0a56c880231cd38f7040bcf764939a42c86",
        "gas": "0xa37c",
        "value": "0x0",
        "input": "0xda7432700000000000000000000000000000000000000000000000000000000000000001",
        "nonce": "0x2e",
        "chainId": "0xa86a"
      },
      "additionalContracts": [],
      "isFixedGasLimit": false
    }
  ],
  "receipts": [
    {
      "status": "0x1",
      "cumulativeGasUsed": "0x13abf6",
      "logs": [
        {
          "address": "0x2cafd0a56c880231cd38f7040bcf764939a42c86",
          "topics": [
            "0x3e98550804b3085d9a3d92f7d32feb7fad271533c8e1bb6bd1e3302c36822a9a",
            "0x0000000000000000000000000000000000000000000000000000000000000001"
          ],
          "data": "0x",
          "blockHash": "0xdab0624f096ee60158c5abada81a271dd5a2c7b5c048211ef08db5bf2133bcd5",
          "blockNumber": "0x378d151",
          "transactionHash": "0xaaff0fc9dc072470b06b7ce229e4186d657dd7bed589a01ece6a358d888b79fd",
          "transactionIndex": "0x3",
          "logIndex": "0x4",
          "removed": false
        }
      ],
      "logsBloom": "0x00000000000000000000000000000000000000000000000000000000000000000000000000000000000000000000000000000000000000000000000000040000000000002000000000000000000000000000000000040000000200000000000000000000000000000000000000000000000000000000000000000000000000000000000000000000000000000000000000000000000000000000000000000000000000000000000000000000000000000000000000000000000000100000200000000000000000000000000000400000000000000000000000000000000040000000000000000000000020000000000000000000000000000000000000000000",
      "type": "0x2",
      "transactionHash": "0xaaff0fc9dc072470b06b7ce229e4186d657dd7bed589a01ece6a358d888b79fd",
      "transactionIndex": "0x3",
      "blockHash": "0xdab0624f096ee60158c5abada81a271dd5a2c7b5c048211ef08db5bf2133bcd5",
      "blockNumber": "0x378d151",
      "gasUsed": "0x765d",
      "effectiveGasPrice": "0x430e2340",
      "from": "0xe90cfb1cd42ea306959577e12f577b50ebc0e0a4",
      "to": "0x2cafd0a56c880231cd38f7040bcf764939a42c86",
      "contractAddress": null
    }
  ],
  "libraries": [],
  "pending": [],
  "returns": {},
  "timestamp": 1741163485,
  "chain": 43114,
  "commit": "2cbd157"
}