{
  "transactions": [
    {
      "hash": "0xe66448729275dd241bb7c5fdeed1d03eba90765d2317609371292733e385ca01",
      "transactionType": "CALL",
      "contractName": null,
      "contractAddress": "0x9bad54cad50da7059aaf8bd8b00c3f20594d7841",
      "function": "createMarket(uint256,uint256,uint256,string,bool)",
      "arguments": [
        "600",
        "500",
        "3000",
        "https://pyrdmmdqiqerkvwzvkha.supabase.co/storage/v1/object/public/premarket_static/markets/2.json",
        "false"
      ],
      "transaction": {
        "from": "0x6f537dd2e6c75aa585a209a39fbbc41fe50bd515",
        "to": "0x9bad54cad50da7059aaf8bd8b00c3f20594d7841",
        "gas": "0x50f3f",
        "value": "0x0",
        "input": "0xd142d548000000000000000000000000000000000000000000000000000000000000025800000000000000000000000000000000000000000000000000000000000001f40000000000000000000000000000000000000000000000000000000000000bb800000000000000000000000000000000000000000000000000000000000000a00000000000000000000000000000000000000000000000000000000000000000000000000000000000000000000000000000000000000000000000000000006168747470733a2f2f707972646d6d6471697165726b76777a766b68612e73757061626173652e636f2f73746f726167652f76312f6f626a6563742f7075626c69632f7072656d61726b65745f7374617469632f6d61726b6574732f322e6a736f6e00000000000000000000000000000000000000000000000000000000000000",
        "nonce": "0x44",
        "chainId": "0xa86a"
      },
      "additionalContracts": [],
      "isFixedGasLimit": false
    }
  ],
  "receipts": [
    {
      "status": "0x1",
      "cumulativeGasUsed": "0xe975d",
      "logs": [
        {
          "address": "0x9bad54cad50da7059aaf8bd8b00c3f20594d7841",
          "topics": [
            "0x25b2eff8f9cbb97c6c73adf7d94f4f8956260becc65ab075709db7561914a2b1",
            "0x0000000000000000000000000000000000000000000000000000000000000005"
          ],
          "data": "0x",
          "blockHash": "0x12063a8d84ea4c9a43079423a803d292a673db9707d18d309780e58f97d7a4ab",
          "blockNumber": "0x37857c2",
          "transactionHash": "0xe66448729275dd241bb7c5fdeed1d03eba90765d2317609371292733e385ca01",
          "transactionIndex": "0x4",
          "logIndex": "0x13",
          "removed": false
        }
      ],
      "logsBloom": "0x00000000000000000000000000000000000000000000000000000000000000000000000400000000000000400000000000000000000000000000000000000000000010000000000000000000000000000000000020000000000000000000000000000000000000000000000000000000000000040000000000000000000000000000100000000000000000000000001000000800000000000004000000000000000000000000000000000000000000000000000000000000000000000000000000000000000000000000000000000000000000000000000000000000000000000000000000000000000000000000000000000000000000000000000000000000",
      "type": "0x2",
      "transactionHash": "0xe66448729275dd241bb7c5fdeed1d03eba90765d2317609371292733e385ca01",
      "transactionIndex": "0x4",
      "blockHash": "0x12063a8d84ea4c9a43079423a803d292a673db9707d18d309780e58f97d7a4ab",
      "blockNumber": "0x37857c2",
      "gasUsed": "0x3a9bd",
      "effectiveGasPrice": "0x8aa32b51",
      "from": "0x6f537dd2e6c75aa585a209a39fbbc41fe50bd515",
      "to": "0x9bad54cad50da7059aaf8bd8b00c3f20594d7841",
      "contractAddress": null
    }
  ],
  "libraries": [],
  "pending": [],
  "returns": {},
  "timestamp": 1741110243,
  "chain": 43114,
  "commit": "6ffe5d4"
}