{
  "transactions": [
    {
      "hash": "0x7baddf25c86a51c309ebd1fff5c1687df78ac0eb9a51d966f4b188564d8a85a0",
      "transactionType": "CALL",
      "contractName": null,
      "contractAddress": "0x688b68e2483392af2404778e18e203166412f29b",
      "function": "stopMarket(uint256)",
      "arguments": [
        "4"
      ],
      "transaction": {
        "from": "0xe90cfb1cd42ea306959577e12f577b50ebc0e0a4",
        "to": "0x688b68e2483392af2404778e18e203166412f29b",
        "gas": "0xa37c",
        "value": "0x0",
        "input": "0xda7432700000000000000000000000000000000000000000000000000000000000000004",
        "nonce": "0x26",
        "chainId": "0xa86a"
      },
      "additionalContracts": [],
      "isFixedGasLimit": false
    }
  ],
  "receipts": [
    {
      "status": "0x1",
      "cumulativeGasUsed": "0x5b60b",
      "logs": [
        {
          "address": "0x688b68e2483392af2404778e18e203166412f29b",
          "topics": [
            "0x3e98550804b3085d9a3d92f7d32feb7fad271533c8e1bb6bd1e3302c36822a9a",
            "0x0000000000000000000000000000000000000000000000000000000000000004"
          ],
          "data": "0x",
          "blockHash": "0x6c69003c6e5c9d01d11885219894a19175a08fab9d6da3f4771a3c69e5dfba69",
          "blockNumber": "0x378c7fd",
          "transactionHash": "0x7baddf25c86a51c309ebd1fff5c1687df78ac0eb9a51d966f4b188564d8a85a0",
          "transactionIndex": "0x1",
          "logIndex": "0x3",
          "removed": false
        }
      ],
      "logsBloom": "0x00000000000000000000000000000000000000000000000000000018000000000000000000000000000000000000000000000000000000000000000000000000000000000000000000000000000000000000000000000000000200000000000008000000000000000000000000000000000000000000000000000000000000000000000000000000000000000000000000000000000000000000000000000000000000000000000000000000000000000000000000000020002000000000000000000000000000000000000000400000000000008000000000000000000000000000000000000000000020000000000000000000000000000000000000000000",
      "type": "0x2",
      "transactionHash": "0x7baddf25c86a51c309ebd1fff5c1687df78ac0eb9a51d966f4b188564d8a85a0",
      "transactionIndex": "0x1",
      "blockHash": "0x6c69003c6e5c9d01d11885219894a19175a08fab9d6da3f4771a3c69e5dfba69",
      "blockNumber": "0x378c7fd",
      "gasUsed": "0x765d",
      "effectiveGasPrice": "0x743aa380",
      "from": "0xe90cfb1cd42ea306959577e12f577b50ebc0e0a4",
      "to": "0x688b68e2483392af2404778e18e203166412f29b",
      "contractAddress": null
    }
  ],
  "libraries": [],
  "pending": [],
  "returns": {},
  "timestamp": 1741159192,
  "chain": 43114,
  "commit": "2cbd157"
}