{
  "transactions": [
    {
      "hash": "0xdce11062554449ddcc5db9213f94159d8f4b46eb43e7ea799d10f298ea2b0a98",
      "transactionType": "CALL",
      "contractName": null,
      "contractAddress": "0x9bad54cad50da7059aaf8bd8b00c3f20594d7841",
      "function": "setMarketTokenDetails(uint256,uint256,address)",
      "arguments": [
        "3",
        "100000000000000000000",
        "0x6f537Dd2E6C75Aa585A209A39FbbC41Fe50bd515"
      ],
      "transaction": {
        "from": "0x6f537dd2e6c75aa585a209a39fbbc41fe50bd515",
        "to": "0x9bad54cad50da7059aaf8bd8b00c3f20594d7841",
        "gas": "0x1b038",
        "value": "0x0",
        "input": "0xe679857600000000000000000000000000000000000000000000000000000000000000030000000000000000000000000000000000000000000000056bc75e2d631000000000000000000000000000006f537dd2e6c75aa585a209a39fbbc41fe50bd515",
        "nonce": "0x3a",
        "chainId": "0xa86a"
      },
      "additionalContracts": [],
      "isFixedGasLimit": false
    },
    {
      "hash": "0xd52204bdeda714cbf272d45a1adc68e3a39dd227d15cee5727b5664e2bc46ee1",
      "transactionType": "CALL",
      "contractName": null,
      "contractAddress": "0x9bad54cad50da7059aaf8bd8b00c3f20594d7841",
      "function": "setMarketDeadline(uint256)",
      "arguments": [
        "3"
      ],
      "transaction": {
        "from": "0x6f537dd2e6c75aa585a209a39fbbc41fe50bd515",
        "to": "0x9bad54cad50da7059aaf8bd8b00c3f20594d7841",
        "gas": "0x13dd8",
        "value": "0x0",
        "input": "0x710eb63c0000000000000000000000000000000000000000000000000000000000000003",
        "nonce": "0x3b",
        "chainId": "0xa86a"
      },
      "additionalContracts": [],
      "isFixedGasLimit": false
    }
  ],
  "receipts": [
    {
      "status": "0x1",
      "cumulativeGasUsed": "0x450460",
      "logs": [
        {
          "address": "0x9bad54cad50da7059aaf8bd8b00c3f20594d7841",
          "topics": [
            "0xbe087bdc22e97c7d7df5e0d572e283071d6fae09a18ca90c77c4999a495ea2a6",
            "0x0000000000000000000000000000000000000000000000000000000000000003"
          ],
          "data": "0x0000000000000000000000000000000000000000000000056bc75e2d631000000000000000000000000000006f537dd2e6c75aa585a209a39fbbc41fe50bd515",
          "blockHash": "0x19b3c5c84188bca2fecb20d1be1c78623cd24243599b425cf3f165f9b05edfaf",
          "blockNumber": "0x3784cad",
          "transactionHash": "0xdce11062554449ddcc5db9213f94159d8f4b46eb43e7ea799d10f298ea2b0a98",
          "transactionIndex": "0x13",
          "logIndex": "0x38",
          "removed": false
        }
      ],
      "logsBloom": "0x00000000000000000000000000000000000000000000000000000000000020000000000000000000000000400000000000000000020000000000000000000000000000000000000000000000000000000000000020000000000000000000000000040000000000000000000000800000000000040000000000000000000000000000000000000000000000000000000000000000000000000000000000000000000000000000000000000000000000000000000000800000000000000000400000000000000000000000000000000000000000000000000000000000000000000000000000000000000000000000000000000000000000000000000000000000",
      "type": "0x2",
      "transactionHash": "0xdce11062554449ddcc5db9213f94159d8f4b46eb43e7ea799d10f298ea2b0a98",
      "transactionIndex": "0x13",
      "blockHash": "0x19b3c5c84188bca2fecb20d1be1c78623cd24243599b425cf3f165f9b05edfaf",
      "blockNumber": "0x3784cad",
      "gasUsed": "0x12789",
      "effectiveGasPrice": "0x42c15c8e6",
      "from": "0x6f537dd2e6c75aa585a209a39fbbc41fe50bd515",
      "to": "0x9bad54cad50da7059aaf8bd8b00c3f20594d7841",
      "contractAddress": null
    },
    {
      "status": "0x1",
      "cumulativeGasUsed": "0x45ea7e",
      "logs": [
        {
          "address": "0x9bad54cad50da7059aaf8bd8b00c3f20594d7841",
          "topics": [
            "0x1a5ad6952dcb13c068ab646c10e7d499f191cbb7399a30f1c15754d01a19c288",
            "0x0000000000000000000000000000000000000000000000000000000000000003"
          ],
          "data": "0x0000000000000000000000000000000000000000000000000000000067c87c9d",
          "blockHash": "0x19b3c5c84188bca2fecb20d1be1c78623cd24243599b425cf3f165f9b05edfaf",
          "blockNumber": "0x3784cad",
          "transactionHash": "0xd52204bdeda714cbf272d45a1adc68e3a39dd227d15cee5727b5664e2bc46ee1",
          "transactionIndex": "0x14",
          "logIndex": "0x39",
          "removed": false
        }
      ],
      "logsBloom": "0x00000000000000000000000000000000000000000000000000000000000000000000000000000000000000400000000000000000020000000000000000000000000000000000000000000000000000000000000020000000000000000000000000000000000000000000000000010000000000040000000000000000000000000000000000000000000000000000000000000002000000000000000000000000000000000000000000000000000000000000000000800000000000000000400000000000000000000000000000000000000000000000000000000000000000000000010000000000000000000000000000000000000000000000000000000000",
      "type": "0x2",
      "transactionHash": "0xd52204bdeda714cbf272d45a1adc68e3a39dd227d15cee5727b5664e2bc46ee1",
      "transactionIndex": "0x14",
      "blockHash": "0x19b3c5c84188bca2fecb20d1be1c78623cd24243599b425cf3f165f9b05edfaf",
      "blockNumber": "0x3784cad",
      "gasUsed": "0xe61e",
      "effectiveGasPrice": "0x42c15c8e6",
      "from": "0x6f537dd2e6c75aa585a209a39fbbc41fe50bd515",
      "to": "0x9bad54cad50da7059aaf8bd8b00c3f20594d7841",
      "contractAddress": null
    }
  ],
  "libraries": [],
  "pending": [],
  "returns": {},
  "timestamp": 1741105952,
  "chain": 43114,
  "commit": "594493a"
}